{
  "contractName": "Cache",
  "abi": [
    {
      "inputs": [
        {
          "internalType": "address",
          "name": "_rAddress",
          "type": "address"
        },
        {
          "internalType": "address",
          "name": "_resolverAddress",
          "type": "address"
        }
      ],
      "payable": false,
      "stateMutability": "nonpayable",
      "type": "constructor"
    },
    {
      "anonymous": false,
      "inputs": [
        {
          "indexed": true,
          "internalType": "bytes32",
          "name": "nameHash",
          "type": "bytes32"
        },
        {
          "indexed": false,
          "internalType": "bytes",
          "name": "ip",
          "type": "bytes"
        }
      ],
      "name": "UpdateCacheEvent",
      "type": "event"
    },
    {
      "constant": true,
      "inputs": [],
      "name": "rAddress",
      "outputs": [
        {
          "internalType": "address",
          "name": "",
          "type": "address"
        }
      ],
      "payable": false,
      "stateMutability": "view",
      "type": "function"
    },
    {
      "constant": true,
      "inputs": [
        {
          "internalType": "bytes32",
          "name": "",
          "type": "bytes32"
        }
      ],
      "name": "records",
      "outputs": [
        {
          "internalType": "bytes32",
          "name": "nameHash",
          "type": "bytes32"
        },
        {
          "internalType": "bytes",
          "name": "ip",
          "type": "bytes"
        }
      ],
      "payable": false,
      "stateMutability": "view",
      "type": "function"
    },
    {
      "constant": true,
      "inputs": [],
      "name": "registry",
      "outputs": [
        {
          "internalType": "contract Registry",
          "name": "",
          "type": "address"
        }
      ],
      "payable": false,
      "stateMutability": "view",
      "type": "function"
    },
    {
      "constant": true,
      "inputs": [],
      "name": "resolver",
      "outputs": [
        {
          "internalType": "contract Resolver",
          "name": "",
          "type": "address"
        }
      ],
      "payable": false,
      "stateMutability": "view",
      "type": "function"
    },
    {
      "constant": true,
      "inputs": [],
      "name": "resolverAddress",
      "outputs": [
        {
          "internalType": "address",
          "name": "",
          "type": "address"
        }
      ],
      "payable": false,
      "stateMutability": "view",
      "type": "function"
    },
    {
      "constant": false,
      "inputs": [
        {
          "internalType": "bytes32",
          "name": "nameHash",
          "type": "bytes32"
        }
      ],
      "name": "resolve",
      "outputs": [
        {
          "internalType": "bytes",
          "name": "ip",
          "type": "bytes"
        }
      ],
      "payable": false,
      "stateMutability": "nonpayable",
      "type": "function"
    },
    {
      "constant": false,
      "inputs": [
        {
          "internalType": "bytes32",
          "name": "nameHash",
          "type": "bytes32"
        },
        {
          "internalType": "bytes",
          "name": "ip",
          "type": "bytes"
        }
      ],
      "name": "updateCache",
      "outputs": [],
      "payable": false,
      "stateMutability": "nonpayable",
      "type": "function"
    }
  ],
  "bytecode": "0x608060405234801561001057600080fd5b50604051610ad2380380610ad28339818101604052604081101561003357600080fd5b81019080805190602001909291908051906020019092919050505081600260006101000a81548173ffffffffffffffffffffffffffffffffffffffff021916908373ffffffffffffffffffffffffffffffffffffffff16021790555080600360006101000a81548173ffffffffffffffffffffffffffffffffffffffff021916908373ffffffffffffffffffffffffffffffffffffffff160217905550600260009054906101000a900473ffffffffffffffffffffffffffffffffffffffff166000806101000a81548173ffffffffffffffffffffffffffffffffffffffff021916908373ffffffffffffffffffffffffffffffffffffffff160217905550600360009054906101000a900473ffffffffffffffffffffffffffffffffffffffff16600160006101000a81548173ffffffffffffffffffffffffffffffffffffffff021916908373ffffffffffffffffffffffffffffffffffffffff160217905550505061092c806101a66000396000f3fe608060405234801561001057600080fd5b506004361061007d5760003560e01c80637b1039991161005b5780637b10399914610221578063b1db5bec1461026b578063dbad0e88146102b5578063fc57fa4d1461037a5761007d565b806301e647251461008257806304f3bcec146101305780635c23bdf51461017a575b600080fd5b6100ae6004803603602081101561009857600080fd5b81019080803590602001909291905050506103c4565b6040518083815260200180602001828103825283818151815260200191508051906020019080838360005b838110156100f45780820151818401526020810190506100d9565b50505050905090810190601f1680156101215780820380516001836020036101000a031916815260200191505b50935050505060405180910390f35b610138610480565b604051808273ffffffffffffffffffffffffffffffffffffffff1673ffffffffffffffffffffffffffffffffffffffff16815260200191505060405180910390f35b6101a66004803603602081101561019057600080fd5b81019080803590602001909291905050506104a6565b6040518080602001828103825283818151815260200191508051906020019080838360005b838110156101e65780820151818401526020810190506101cb565b50505050905090810190601f1680156102135780820380516001836020036101000a031916815260200191505b509250505060405180910390f35b610229610706565b604051808273ffffffffffffffffffffffffffffffffffffffff1673ffffffffffffffffffffffffffffffffffffffff16815260200191505060405180910390f35b61027361072b565b604051808273ffffffffffffffffffffffffffffffffffffffff1673ffffffffffffffffffffffffffffffffffffffff16815260200191505060405180910390f35b610378600480360360408110156102cb57600080fd5b8101908080359060200190929190803590602001906401000000008111156102f257600080fd5b82018360208201111561030457600080fd5b8035906020019184600183028401116401000000008311171561032657600080fd5b91908080601f016020809104026020016040519081016040528093929190818152602001838380828437600081840152601f19601f820116905080830192505050505050509192919290505050610751565b005b61038261082c565b604051808273ffffffffffffffffffffffffffffffffffffffff1673ffffffffffffffffffffffffffffffffffffffff16815260200191505060405180910390f35b6004602052806000526040600020600091509050806000015490806001018054600181600116156101000203166002900480601f0160208091040260200160405190810160405280929190818152602001828054600181600116156101000203166002900480156104765780601f1061044b57610100808354040283529160200191610476565b820191906000526020600020905b81548152906001019060200180831161045957829003601f168201915b5050505050905082565b600160009054906101000a900473ffffffffffffffffffffffffffffffffffffffff1681565b606060006004600084815260200190815260200160002090506000816001018054600181600116156101000203166002900490501461058457806001018054600181600116156101000203166002900480601f0160208091040260200160405190810160405280929190818152602001828054600181600116156101000203166002900480156105775780601f1061054c57610100808354040283529160200191610577565b820191906000526020600020905b81548152906001019060200180831161055a57829003601f168201915b5050505050915050610701565b600160009054906101000a900473ffffffffffffffffffffffffffffffffffffffff1673ffffffffffffffffffffffffffffffffffffffff16635c23bdf5846040518263ffffffff1660e01b81526004018082815260200191505060006040518083038186803b1580156105f757600080fd5b505afa15801561060b573d6000803e3d6000fd5b505050506040513d6000823e3d601f19601f82011682018060405250602081101561063557600080fd5b810190808051604051939291908464010000000082111561065557600080fd5b8382019150602082018581111561066b57600080fd5b825186600182028301116401000000008211171561068857600080fd5b8083526020830192505050908051906020019080838360005b838110156106bc5780820151818401526020810190506106a1565b50505050905090810190601f1680156106e95780820380516001836020036101000a031916815260200191505b5060405250505091506106fc8383610751565b819150505b919050565b6000809054906101000a900473ffffffffffffffffffffffffffffffffffffffff1681565b600360009054906101000a900473ffffffffffffffffffffffffffffffffffffffff1681565b600060046000848152602001908152602001600020905082816000018190555081816001019080519060200190610789929190610852565b50827f14d0b839054bcc94e390390c06487606fb79981b55614feb262bfcfa89f7d8ea836040518080602001828103825283818151815260200191508051906020019080838360005b838110156107ed5780820151818401526020810190506107d2565b50505050905090810190601f16801561081a5780820380516001836020036101000a031916815260200191505b509250505060405180910390a2505050565b600260009054906101000a900473ffffffffffffffffffffffffffffffffffffffff1681565b828054600181600116156101000203166002900490600052602060002090601f016020900481019282601f1061089357805160ff19168380011785556108c1565b828001600101855582156108c1579182015b828111156108c05782518255916020019190600101906108a5565b5b5090506108ce91906108d2565b5090565b6108f491905b808211156108f05760008160009055506001016108d8565b5090565b9056fea265627a7a72315820188986452ebe57ba75dd0b91ce04d62a00b4f9dc6414eb1c1f997bc37ab0583b64736f6c63430005100032",
  "source": "// SPDX-License-Identifier: MIT\r\npragma solidity >=0.5.1 <0.9.0;\r\n\r\nimport \"./Registry.sol\";\r\nimport \"./Resolver.sol\";\r\n\r\ncontract Cache {\r\n    Registry public registry;\r\n    Resolver public resolver;\r\n    address public rAddress;\r\n    address public resolverAddress;\r\n\r\n    event UpdateCacheEvent(bytes32 indexed nameHash, bytes ip);\r\n\r\n    struct Record {\r\n        bytes32 nameHash;\r\n        bytes ip;\r\n    }\r\n\r\n    mapping(bytes32 => Record) public records;\r\n\r\n    // Address of Registry and Resolver contracts\r\n    constructor(address _rAddress, address _resolverAddress) public {\r\n        // store the Registry and Resolver addresses\r\n        rAddress = _rAddress;\r\n        resolverAddress = _resolverAddress;\r\n        registry = Registry(rAddress);\r\n        resolver = Resolver(resolverAddress);\r\n    }\r\n\r\n    // Resolve name to IP address\r\n    function resolve(bytes32 nameHash) public returns (bytes memory ip) {\r\n        Record storage record = records[nameHash];\r\n        if (record.ip.length != 0) {\r\n            // IP is in cache\r\n            return record.ip;\r\n        } else {\r\n            // IP is not in cache, get it from Resolver\r\n            ip = resolver.resolve(nameHash);\r\n            // Update cache\r\n            updateCache(nameHash, ip);\r\n            return ip;\r\n        }\r\n    }\r\n\r\n    function updateCache(bytes32 nameHash, bytes memory ip) public {\r\n        Record storage record = records[nameHash];\r\n        record.nameHash = nameHash;\r\n        record.ip = ip;\r\n\r\n        // Emit the event\r\n        emit UpdateCacheEvent(nameHash, ip);\r\n    }\r\n}\r\n",
  "sourcePath": "C:\\Users\\pc\\sadena\\contracts\\Cache.sol",
  "compiler": {
    "name": "solc",
    "version": "0.5.16+commit.9c3226ce.Emscripten.clang"
  },
  "schemaVersion": "3.4.16",
  "updatedAt": "2024-04-01T06:35:37.727Z",
  "networkType": "ethereum",
  "devdoc": {
    "methods": {}
  },
  "userdoc": {
    "methods": {}
  }
}