{
  "contractName": "Registry",
  "abi": [
    {
      "inputs": [],
      "payable": false,
      "stateMutability": "nonpayable",
      "type": "constructor"
    },
    {
      "anonymous": false,
      "inputs": [
        {
          "indexed": false,
          "internalType": "bytes32",
          "name": "nameHash",
          "type": "bytes32"
        },
        {
          "indexed": false,
          "internalType": "bytes",
          "name": "newIp",
          "type": "bytes"
        }
      ],
      "name": "IPUpdated",
      "type": "event"
    },
    {
      "anonymous": false,
      "inputs": [
        {
          "indexed": false,
          "internalType": "string",
          "name": "message",
          "type": "string"
        },
        {
          "indexed": false,
          "internalType": "uint256",
          "name": "value",
          "type": "uint256"
        }
      ],
      "name": "LogInitialized",
      "type": "event"
    },
    {
      "constant": true,
      "inputs": [
        {
          "internalType": "bytes32",
          "name": "",
          "type": "bytes32"
        }
      ],
      "name": "records",
      "outputs": [
        {
          "internalType": "bytes32",
          "name": "nameHash",
          "type": "bytes32"
        },
        {
          "internalType": "bytes",
          "name": "ip",
          "type": "bytes"
        },
        {
          "internalType": "address",
          "name": "owner",
          "type": "address"
        },
        {
          "internalType": "bool",
          "name": "registered",
          "type": "bool"
        }
      ],
      "payable": false,
      "stateMutability": "view",
      "type": "function"
    },
    {
      "constant": false,
      "inputs": [
        {
          "internalType": "bytes32",
          "name": "nameHash",
          "type": "bytes32"
        },
        {
          "internalType": "bytes",
          "name": "ip",
          "type": "bytes"
        }
      ],
      "name": "register",
      "outputs": [],
      "payable": false,
      "stateMutability": "nonpayable",
      "type": "function"
    },
    {
      "constant": false,
      "inputs": [
        {
          "internalType": "bytes32",
          "name": "nameHash",
          "type": "bytes32"
        },
        {
          "internalType": "bytes",
          "name": "newIp",
          "type": "bytes"
        }
      ],
      "name": "updateIp",
      "outputs": [],
      "payable": false,
      "stateMutability": "nonpayable",
      "type": "function"
    }
  ],
  "bytecode": "0x608060405234801561001057600080fd5b506107ba806100206000396000f3fe608060405234801561001057600080fd5b50600436106100415760003560e01c806301e64725146100465780632a28e5a3146101325780637044451a146101f7575b600080fd5b6100726004803603602081101561005c57600080fd5b81019080803590602001909291905050506102bc565b60405180858152602001806020018473ffffffffffffffffffffffffffffffffffffffff1673ffffffffffffffffffffffffffffffffffffffff16815260200183151515158152602001828103825285818151815260200191508051906020019080838360005b838110156100f45780820151818401526020810190506100d9565b50505050905090810190601f1680156101215780820380516001836020036101000a031916815260200191505b509550505050505060405180910390f35b6101f56004803603604081101561014857600080fd5b81019080803590602001909291908035906020019064010000000081111561016f57600080fd5b82018360208201111561018157600080fd5b803590602001918460018302840111640100000000831117156101a357600080fd5b91908080601f016020809104026020016040519081016040528093929190818152602001838380828437600081840152601f19601f8201169050808301925050505050505091929192905050506103b1565b005b6102ba6004803603604081101561020d57600080fd5b81019080803590602001909291908035906020019064010000000081111561023457600080fd5b82018360208201111561024657600080fd5b8035906020019184600183028401116401000000008311171561026857600080fd5b91908080601f016020809104026020016040519081016040528093929190818152602001838380828437600081840152601f19601f820116905080830192505050505050509192919290505050610543565b005b6000602052806000526040600020600091509050806000015490806001018054600181600116156101000203166002900480601f01602080910402602001604051908101604052809291908181526020018280546001816001161561010002031660029004801561036e5780601f106103435761010080835404028352916020019161036e565b820191906000526020600020905b81548152906001019060200180831161035157829003601f168201915b5050505050908060020160009054906101000a900473ffffffffffffffffffffffffffffffffffffffff16908060020160149054906101000a900460ff16905084565b7f5a7cdc150e12880768cfef70e38ab0dbd66130e9967016128f51a40e1b6223ec426040518080602001838152602001828103825260128152602001807f5265676973746572696e6720646f6d61696e00000000000000000000000000008152506020019250505060405180910390a1600080600084815260200190815260200160002090508060020160149054906101000a900460ff16156104bc576040517f08c379a00000000000000000000000000000000000000000000000000000000081526004018080602001828103825260198152602001807f446f6d61696e20616c726561647920726567697374657265640000000000000081525060200191505060405180910390fd5b828160000181905550818160010190805190602001906104dd9291906106e0565b50338160020160006101000a81548173ffffffffffffffffffffffffffffffffffffffff021916908373ffffffffffffffffffffffffffffffffffffffff16021790555060018160020160146101000a81548160ff021916908315150217905550505050565b600080600084815260200190815260200160002090508060020160009054906101000a900473ffffffffffffffffffffffffffffffffffffffff1673ffffffffffffffffffffffffffffffffffffffff163373ffffffffffffffffffffffffffffffffffffffff161461061e576040517f08c379a00000000000000000000000000000000000000000000000000000000081526004018080602001828103825260188152602001807f4f6e6c79206f776e65722063616e20757064617465204950000000000000000081525060200191505060405180910390fd5b818160010190805190602001906106369291906106e0565b507f2e18fb87874a2c4eda489fd39648440e977cbec3fff0e9c0a93d4c6b781fb54f83836040518083815260200180602001828103825283818151815260200191508051906020019080838360005b838110156106a0578082015181840152602081019050610685565b50505050905090810190601f1680156106cd5780820380516001836020036101000a031916815260200191505b50935050505060405180910390a1505050565b828054600181600116156101000203166002900490600052602060002090601f016020900481019282601f1061072157805160ff191683800117855561074f565b8280016001018555821561074f579182015b8281111561074e578251825591602001919060010190610733565b5b50905061075c9190610760565b5090565b61078291905b8082111561077e576000816000905550600101610766565b5090565b9056fea265627a7a72315820b05949f43e354a5ae06f57b1a3a044d0a35d33105856e99d3644a937ca751f8964736f6c63430005100032",
  "source": "// SPDX-License-Identifier: MIT\r\n pragma solidity >=0.5.1 <0.9.0;\r\n\r\n\r\ncontract Registry {\r\n    event LogInitialized(string message, uint256 value);\r\n\r\n    struct Record {\r\n        bytes32 nameHash; \r\n        bytes ip;\r\n        address owner;\r\n\tbool registered;\r\n    }\r\n\r\n    mapping(bytes32 => Record) public records; \r\n\r\n    // Constructor to initialize the contract\r\n    constructor() public {\r\n        // No specific initialization logic\r\n    }\r\n\r\n    // Register domain name & IP\r\n    function register(bytes32 nameHash, bytes memory ip) public {\r\n        // Emit an event to log the registration\r\n        emit LogInitialized(\"Registering domain\", block.timestamp);\r\n        // Lookup existing record\r\n        Record storage record = records[nameHash];\r\n        // Store IP and owner\r\n\trequire(!record.registered, \"Domain already registered\");\r\n\trecord.nameHash = nameHash;\r\n        record.ip = ip;\r\n        record.owner = msg.sender;\r\n\trecord.registered = true;\r\n    }\r\n    event IPUpdated(bytes32 nameHash, bytes newIp);\r\n    function updateIp(bytes32 nameHash, bytes memory newIp) public {\r\n    Record storage record = records[nameHash];\r\n    require(msg.sender == record.owner, \"Only owner can update IP\");\r\n    record.ip = newIp;\r\n    emit IPUpdated(nameHash, newIp);\r\n}\r\n}",
  "sourcePath": "C:\\Users\\pc\\sadena\\contracts\\Registry.sol",
  "compiler": {
    "name": "solc",
    "version": "0.5.16+commit.9c3226ce.Emscripten.clang"
  },
  "schemaVersion": "3.4.16",
  "updatedAt": "2024-04-01T06:35:37.735Z",
  "networkType": "ethereum",
  "devdoc": {
    "methods": {}
  },
  "userdoc": {
    "methods": {}
  }
}