{
  "contractName": "Resolver",
  "abi": [
    {
      "inputs": [
        {
          "internalType": "address",
          "name": "_rAddress",
          "type": "address"
        }
      ],
      "payable": false,
      "stateMutability": "nonpayable",
      "type": "constructor"
    },
    {
      "constant": true,
      "inputs": [],
      "name": "rAddress",
      "outputs": [
        {
          "internalType": "address",
          "name": "",
          "type": "address"
        }
      ],
      "payable": false,
      "stateMutability": "view",
      "type": "function"
    },
    {
      "constant": true,
      "inputs": [],
      "name": "registry",
      "outputs": [
        {
          "internalType": "contract Registry",
          "name": "",
          "type": "address"
        }
      ],
      "payable": false,
      "stateMutability": "view",
      "type": "function"
    },
    {
      "constant": true,
      "inputs": [
        {
          "internalType": "bytes32",
          "name": "nameHash",
          "type": "bytes32"
        }
      ],
      "name": "resolve",
      "outputs": [
        {
          "internalType": "bytes",
          "name": "",
          "type": "bytes"
        }
      ],
      "payable": false,
      "stateMutability": "view",
      "type": "function"
    }
  ],
  "bytecode": "0x608060405234801561001057600080fd5b5060405161049e38038061049e8339818101604052602081101561003357600080fd5b810190808051906020019092919050505080600160006101000a81548173ffffffffffffffffffffffffffffffffffffffff021916908373ffffffffffffffffffffffffffffffffffffffff160217905550600160009054906101000a900473ffffffffffffffffffffffffffffffffffffffff166000806101000a81548173ffffffffffffffffffffffffffffffffffffffff021916908373ffffffffffffffffffffffffffffffffffffffff160217905550506103a7806100f76000396000f3fe608060405234801561001057600080fd5b50600436106100415760003560e01c80635c23bdf5146100465780637b103999146100ed578063fc57fa4d14610137575b600080fd5b6100726004803603602081101561005c57600080fd5b8101908080359060200190929190505050610181565b6040518080602001828103825283818151815260200191508051906020019080838360005b838110156100b2578082015181840152602081019050610097565b50505050905090810190601f1680156100df5780820380516001836020036101000a031916815260200191505b509250505060405180910390f35b6100f5610327565b604051808273ffffffffffffffffffffffffffffffffffffffff1673ffffffffffffffffffffffffffffffffffffffff16815260200191505060405180910390f35b61013f61034c565b604051808273ffffffffffffffffffffffffffffffffffffffff1673ffffffffffffffffffffffffffffffffffffffff16815260200191505060405180910390f35b6060806000809054906101000a900473ffffffffffffffffffffffffffffffffffffffff1673ffffffffffffffffffffffffffffffffffffffff166301e64725846040518263ffffffff1660e01b81526004018082815260200191505060006040518083038186803b1580156101f657600080fd5b505afa15801561020a573d6000803e3d6000fd5b505050506040513d6000823e3d601f19601f82011682018060405250608081101561023457600080fd5b81019080805190602001909291908051604051939291908464010000000082111561025e57600080fd5b8382019150602082018581111561027457600080fd5b825186600182028301116401000000008211171561029157600080fd5b8083526020830192505050908051906020019080838360005b838110156102c55780820151818401526020810190506102aa565b50505050905090810190601f1680156102f25780820380516001836020036101000a031916815260200191505b506040526020018051906020019092919080519060200190929190505050909192508292509050508091505080915050919050565b6000809054906101000a900473ffffffffffffffffffffffffffffffffffffffff1681565b600160009054906101000a900473ffffffffffffffffffffffffffffffffffffffff168156fea265627a7a7231582080b5e6fc96c3d82f060081a890761a94e73f45a70b08ddc35d008517a304a1cc64736f6c63430005100032",
  "source": "// SPDX-License-Identifier: MIT\r\npragma solidity >=0.5.1 <0.9.0;\r\n\r\nimport \"./Registry.sol\";\r\n\r\ncontract Resolver {\r\n    Registry public registry;\r\n    address public rAddress;\r\n\r\n    // Address of Registry contract\r\n    constructor(address _rAddress) public {\r\n        // store the Registry address\r\n        rAddress = _rAddress;\r\n        registry = Registry(rAddress);\r\n    }\r\n\r\n    // Resolve name to IP address\r\n    function resolve(bytes32 nameHash) public view returns (bytes memory) {\r\n        // Declare ip variable\r\n        bytes memory ip;\r\n        // Query Registry contract\r\n        (, ip, , ) = registry.records(nameHash);\r\n        return ip;\r\n    }\r\n}\r\n",
  "sourcePath": "C:\\Users\\User\\Desktop\\dnss\\contracts\\Resolver.sol",
  "compiler": {
    "name": "solc",
    "version": "0.5.16+commit.9c3226ce.Emscripten.clang"
  },
  "schemaVersion": "3.4.16",
  "updatedAt": "2024-05-06T20:33:00.690Z",
  "devdoc": {
    "methods": {}
  },
  "userdoc": {
    "methods": {}
  }
}